{
  "_format": "hh-sol-artifact-1",
  "contractName": "SimpleDEX",
  "sourceName": "src/SimpleDEX.sol",
  "abi": [
    {
      "inputs": [
        {
          "internalType": "address",
          "name": "_tokenA",
          "type": "address"
        },
        {
          "internalType": "address",
          "name": "_tokenB",
          "type": "address"
        }
      ],
      "stateMutability": "nonpayable",
      "type": "constructor"
    },
    {
      "inputs": [],
      "name": "ReentrancyGuardReentrantCall",
      "type": "error"
    },
    {
      "anonymous": false,
      "inputs": [
        {
          "indexed": false,
          "internalType": "uint256",
          "name": "amountA",
          "type": "uint256"
        },
        {
          "indexed": false,
          "internalType": "uint256",
          "name": "amountB",
          "type": "uint256"
        }
      ],
      "name": "LiquidityAdded",
      "type": "event"
    },
    {
      "anonymous": false,
      "inputs": [
        {
          "indexed": true,
          "internalType": "address",
          "name": "user",
          "type": "address"
        },
        {
          "indexed": false,
          "internalType": "uint256",
          "name": "amountIn",
          "type": "uint256"
        },
        {
          "indexed": false,
          "internalType": "uint256",
          "name": "amountOut",
          "type": "uint256"
        },
        {
          "indexed": false,
          "internalType": "string",
          "name": "direction",
          "type": "string"
        }
      ],
      "name": "Swap",
      "type": "event"
    },
    {
      "inputs": [
        {
          "internalType": "uint256",
          "name": "amountA",
          "type": "uint256"
        },
        {
          "internalType": "uint256",
          "name": "amountB",
          "type": "uint256"
        }
      ],
      "name": "addLiquidity",
      "outputs": [],
      "stateMutability": "nonpayable",
      "type": "function"
    },
    {
      "inputs": [
        {
          "internalType": "uint256",
          "name": "amountIn",
          "type": "uint256"
        },
        {
          "internalType": "uint256",
          "name": "resIn",
          "type": "uint256"
        },
        {
          "internalType": "uint256",
          "name": "resOut",
          "type": "uint256"
        }
      ],
      "name": "getAmountOut",
      "outputs": [
        {
          "internalType": "uint256",
          "name": "",
          "type": "uint256"
        }
      ],
      "stateMutability": "pure",
      "type": "function"
    },
    {
      "inputs": [],
      "name": "reserveA",
      "outputs": [
        {
          "internalType": "uint256",
          "name": "",
          "type": "uint256"
        }
      ],
      "stateMutability": "view",
      "type": "function"
    },
    {
      "inputs": [],
      "name": "reserveB",
      "outputs": [
        {
          "internalType": "uint256",
          "name": "",
          "type": "uint256"
        }
      ],
      "stateMutability": "view",
      "type": "function"
    },
    {
      "inputs": [
        {
          "internalType": "uint256",
          "name": "amountAIn",
          "type": "uint256"
        }
      ],
      "name": "swapAforB",
      "outputs": [],
      "stateMutability": "nonpayable",
      "type": "function"
    },
    {
      "inputs": [
        {
          "internalType": "uint256",
          "name": "amountBIn",
          "type": "uint256"
        }
      ],
      "name": "swapBforA",
      "outputs": [],
      "stateMutability": "nonpayable",
      "type": "function"
    },
    {
      "inputs": [],
      "name": "tokenA",
      "outputs": [
        {
          "internalType": "contract IERC20",
          "name": "",
          "type": "address"
        }
      ],
      "stateMutability": "view",
      "type": "function"
    },
    {
      "inputs": [],
      "name": "tokenB",
      "outputs": [
        {
          "internalType": "contract IERC20",
          "name": "",
          "type": "address"
        }
      ],
      "stateMutability": "view",
      "type": "function"
    }
  ],
  "bytecode": "0x60c06040523480156200001157600080fd5b50604051620014cf380380620014cf83398181016040528101906200003791906200016f565b6001620000596200004d620000d060201b60201c565b620000fb60201b60201c565b600001819055508173ffffffffffffffffffffffffffffffffffffffff1660808173ffffffffffffffffffffffffffffffffffffffff16815250508073ffffffffffffffffffffffffffffffffffffffff1660a08173ffffffffffffffffffffffffffffffffffffffff16815250505050620001b6565b60007f9b779b17422d0df92223018b32b4d1fa46e071723d6817e2486d003becc55f0060001b905090565b6000819050919050565b600080fd5b600073ffffffffffffffffffffffffffffffffffffffff82169050919050565b600062000137826200010a565b9050919050565b62000149816200012a565b81146200015557600080fd5b50565b60008151905062000169816200013e565b92915050565b6000806040838503121562000189576200018862000105565b5b6000620001998582860162000158565b9250506020620001ac8582860162000158565b9150509250929050565b60805160a0516112c9620002066000396000818161020d015281816102e10152818161069701526109810152600081816101e3015281816103c0015281816105b801526108a201526112c96000f3fe608060405234801561001057600080fd5b50600436106100885760003560e01c80638014a7aa1161005b5780638014a7aa146101175780639cd441da14610133578063dc5fa6c51461014f578063e4f1f70a1461016d57610088565b8063054d50d41461008d5780630fc63d10146100bd57806319e36f3b146100db5780635f64b55b146100f9575b600080fd5b6100a760048036038101906100a29190610bf6565b610189565b6040516100b49190610c58565b60405180910390f35b6100c56101e1565b6040516100d29190610cf2565b60405180910390f35b6100e3610205565b6040516100f09190610c58565b60405180910390f35b61010161020b565b60405161010e9190610cf2565b60405180910390f35b610131600480360381019061012c9190610d0d565b61022f565b005b61014d60048036038101906101489190610d3a565b610528565b005b6101576107ea565b6040516101649190610c58565b60405180910390f35b61018760048036038101906101829190610d0d565b6107f0565b005b6000806103e58561019a9190610da9565b9050600083826101aa9190610da9565b90506000826103e8876101bd9190610da9565b6101c79190610deb565b905080826101d59190610e4e565b93505050509392505050565b7f000000000000000000000000000000000000000000000000000000000000000081565b60015481565b7f000000000000000000000000000000000000000000000000000000000000000081565b610237610ae9565b6000811161027a576040517f08c379a000000000000000000000000000000000000000000000000000000000815260040161027190610edc565b60405180910390fd5b6000805411801561028d57506000600154115b6102cc576040517f08c379a00000000000000000000000000000000000000000000000000000000081526004016102c390610f48565b60405180910390fd5b60006102dd82600154600054610189565b90507f000000000000000000000000000000000000000000000000000000000000000073ffffffffffffffffffffffffffffffffffffffff166323b872dd3330856040518463ffffffff1660e01b815260040161033c93929190610f89565b6020604051808303816000875af115801561035b573d6000803e3d6000fd5b505050506040513d601f19601f8201168201806040525081019061037f9190610ff8565b6103be576040517f08c379a00000000000000000000000000000000000000000000000000000000081526004016103b590611071565b60405180910390fd5b7f000000000000000000000000000000000000000000000000000000000000000073ffffffffffffffffffffffffffffffffffffffff1663a9059cbb33836040518363ffffffff1660e01b8152600401610419929190611091565b6020604051808303816000875af1158015610438573d6000803e3d6000fd5b505050506040513d601f19601f8201168201806040525081019061045c9190610ff8565b61049b576040517f08c379a000000000000000000000000000000000000000000000000000000000815260040161049290611106565b60405180910390fd5b81600160008282546104ad9190610deb565b92505081905550806000808282546104c59190611126565b925050819055503373ffffffffffffffffffffffffffffffffffffffff167fc961ebd701a280a9816017f346bd0efbf4b1c2c7f0e207eb0a9234a123ae7a3e83836040516105149291906111a6565b60405180910390a250610525610b0c565b50565b610530610ae9565b60008211610573576040517f08c379a000000000000000000000000000000000000000000000000000000000815260040161056a90610edc565b60405180910390fd5b600081116105b6576040517f08c379a00000000000000000000000000000000000000000000000000000000081526004016105ad90610edc565b60405180910390fd5b7f000000000000000000000000000000000000000000000000000000000000000073ffffffffffffffffffffffffffffffffffffffff166323b872dd3330856040518463ffffffff1660e01b815260040161061393929190610f89565b6020604051808303816000875af1158015610632573d6000803e3d6000fd5b505050506040513d601f19601f820116820180604052508101906106569190610ff8565b610695576040517f08c379a000000000000000000000000000000000000000000000000000000000815260040161068c90611106565b60405180910390fd5b7f000000000000000000000000000000000000000000000000000000000000000073ffffffffffffffffffffffffffffffffffffffff166323b872dd3330846040518463ffffffff1660e01b81526004016106f293929190610f89565b6020604051808303816000875af1158015610711573d6000803e3d6000fd5b505050506040513d601f19601f820116820180604052508101906107359190610ff8565b610774576040517f08c379a000000000000000000000000000000000000000000000000000000000815260040161076b90611071565b60405180910390fd5b816000808282546107859190610deb565b92505081905550806001600082825461079e9190610deb565b925050819055507f38f8a0c92f4c5b0b6877f878cb4c0c8d348a47b76d716c8e78f425043df9515b82826040516107d69291906111e2565b60405180910390a16107e6610b0c565b5050565b60005481565b6107f8610ae9565b6000811161083b576040517f08c379a000000000000000000000000000000000000000000000000000000000815260040161083290610edc565b60405180910390fd5b6000805411801561084e57506000600154115b61088d576040517f08c379a000000000000000000000000000000000000000000000000000000000815260040161088490610f48565b60405180910390fd5b600061089e82600054600154610189565b90507f000000000000000000000000000000000000000000000000000000000000000073ffffffffffffffffffffffffffffffffffffffff166323b872dd3330856040518463ffffffff1660e01b81526004016108fd93929190610f89565b6020604051808303816000875af115801561091c573d6000803e3d6000fd5b505050506040513d601f19601f820116820180604052508101906109409190610ff8565b61097f576040517f08c379a000000000000000000000000000000000000000000000000000000000815260040161097690611106565b60405180910390fd5b7f000000000000000000000000000000000000000000000000000000000000000073ffffffffffffffffffffffffffffffffffffffff1663a9059cbb33836040518363ffffffff1660e01b81526004016109da929190611091565b6020604051808303816000875af11580156109f9573d6000803e3d6000fd5b505050506040513d601f19601f82011682018060405250810190610a1d9190610ff8565b610a5c576040517f08c379a0000000000000000000000000000000000000000000000000000000008152600401610a5390611071565b60405180910390fd5b81600080828254610a6d9190610deb565b925050819055508060016000828254610a869190611126565b925050819055503373ffffffffffffffffffffffffffffffffffffffff167fc961ebd701a280a9816017f346bd0efbf4b1c2c7f0e207eb0a9234a123ae7a3e8383604051610ad5929190611257565b60405180910390a250610ae6610b0c565b50565b610af1610b27565b6002610b03610afe610b68565b610b93565b60000181905550565b6001610b1e610b19610b68565b610b93565b60000181905550565b610b2f610b9d565b15610b66576040517f3ee5aeb500000000000000000000000000000000000000000000000000000000815260040160405180910390fd5b565b60007f9b779b17422d0df92223018b32b4d1fa46e071723d6817e2486d003becc55f0060001b905090565b6000819050919050565b60006002610bb1610bac610b68565b610b93565b6000015414905090565b600080fd5b6000819050919050565b610bd381610bc0565b8114610bde57600080fd5b50565b600081359050610bf081610bca565b92915050565b600080600060608486031215610c0f57610c0e610bbb565b5b6000610c1d86828701610be1565b9350506020610c2e86828701610be1565b9250506040610c3f86828701610be1565b9150509250925092565b610c5281610bc0565b82525050565b6000602082019050610c6d6000830184610c49565b92915050565b600073ffffffffffffffffffffffffffffffffffffffff82169050919050565b6000819050919050565b6000610cb8610cb3610cae84610c73565b610c93565b610c73565b9050919050565b6000610cca82610c9d565b9050919050565b6000610cdc82610cbf565b9050919050565b610cec81610cd1565b82525050565b6000602082019050610d076000830184610ce3565b92915050565b600060208284031215610d2357610d22610bbb565b5b6000610d3184828501610be1565b91505092915050565b60008060408385031215610d5157610d50610bbb565b5b6000610d5f85828601610be1565b9250506020610d7085828601610be1565b9150509250929050565b7f4e487b7100000000000000000000000000000000000000000000000000000000600052601160045260246000fd5b6000610db482610bc0565b9150610dbf83610bc0565b9250828202610dcd81610bc0565b91508282048414831517610de457610de3610d7a565b5b5092915050565b6000610df682610bc0565b9150610e0183610bc0565b9250828201905080821115610e1957610e18610d7a565b5b92915050565b7f4e487b7100000000000000000000000000000000000000000000000000000000600052601260045260246000fd5b6000610e5982610bc0565b9150610e6483610bc0565b925082610e7457610e73610e1f565b5b828204905092915050565b600082825260208201905092915050565b7f496e76616c696420616d6f756e74000000000000000000000000000000000000600082015250565b6000610ec6600e83610e7f565b9150610ed182610e90565b602082019050919050565b60006020820190508181036000830152610ef581610eb9565b9050919050565b7f4e6f206c69717569646974790000000000000000000000000000000000000000600082015250565b6000610f32600c83610e7f565b9150610f3d82610efc565b602082019050919050565b60006020820190508181036000830152610f6181610f25565b9050919050565b6000610f7382610c73565b9050919050565b610f8381610f68565b82525050565b6000606082019050610f9e6000830186610f7a565b610fab6020830185610f7a565b610fb86040830184610c49565b949350505050565b60008115159050919050565b610fd581610fc0565b8114610fe057600080fd5b50565b600081519050610ff281610fcc565b92915050565b60006020828403121561100e5761100d610bbb565b5b600061101c84828501610fe3565b91505092915050565b7f546f6b656e42207472616e73666572206661696c656400000000000000000000600082015250565b600061105b601683610e7f565b915061106682611025565b602082019050919050565b6000602082019050818103600083015261108a8161104e565b9050919050565b60006040820190506110a66000830185610f7a565b6110b36020830184610c49565b9392505050565b7f546f6b656e41207472616e73666572206661696c656400000000000000000000600082015250565b60006110f0601683610e7f565b91506110fb826110ba565b602082019050919050565b6000602082019050818103600083015261111f816110e3565b9050919050565b600061113182610bc0565b915061113c83610bc0565b925082820390508181111561115457611153610d7a565b5b92915050565b7f4220746f20410000000000000000000000000000000000000000000000000000600082015250565b6000611190600683610e7f565b915061119b8261115a565b602082019050919050565b60006060820190506111bb6000830185610c49565b6111c86020830184610c49565b81810360408301526111d981611183565b90509392505050565b60006040820190506111f76000830185610c49565b6112046020830184610c49565b9392505050565b7f4120746f20420000000000000000000000000000000000000000000000000000600082015250565b6000611241600683610e7f565b915061124c8261120b565b602082019050919050565b600060608201905061126c6000830185610c49565b6112796020830184610c49565b818103604083015261128a81611234565b9050939250505056fea2646970667358221220b62b45be50a62fe9b4f50c10d1632d9de511697225ee3f6a9ed426ce7a7f380364736f6c63430008180033",
  "linkReferences": {},
  "deployedLinkReferences": {}
}